:020000020000FC
:100000003CC00000189500001895000018950000ED
:10001000189500001895000018950000189500002C
:10002000189500001895000018950000189500001C
:10003000189500001895000018950000189500000C
:1000400018950000189500000FC0000018950000DA
:1000500018950000189500001895000018950000EC
:1000600018950000189500000F930091C6000E949B
:10007000EC000E94CB000F91189548E04EBF4FEF67
:100080004DBF40E44AB948E044B940E047B942E4D2
:1000900044BD44E045BD42E44093B00046E0409397
:1000A000B1004BE0409381004DE74093890040E070
:1000B000409388000E9488024FE740930501E8E5DD
:1000C000F6E045914093890044914093880044278D
:1000D00040930301409304014093020140930601C1
:1000E000409307014093090140930A01409308019E
:1000F0000E94BA0078940E9427010091000107BD78
:10010000009101010093B300B19BF5CFB19A00912A
:10011000060110910501011739F00091070101173F
:1001200049F00E949D00E7CF0F9300270093030141
:100130000F91F3CF0E94FB02F4CF0F931F93009116
:100140000601109105010395101760F00093060158
:10015000009107010395101748F0009307011F91C4
:100160000F910895002700930601F2CF0027009316
:100170000701F5CF0F931F9310E007E61093C5001A
:100180000093C40008E90093C1000EE00093C20090
:100190001F910F9108951F931091C00015FFFCCF80
:1001A0000093C6001F91089520910801239523957F
:1001B0002F70209308010E94AE022CC020910801EC
:1001C0002A952A952F70209308010E94AE0222C022
:1001D00022270E94C8021EC01F93EF93FF932F9304
:1001E0003F933327102F1B32F9F21D3239F31032AF
:1001F00079F31B3770F4103360F0103688F41B3538
:1002000040F41134D8F41A3320F41053109302013F
:1002100001C000E03F912F91FF91EF911F91089550
:10022000103649F01156EEE3F6E0E10FF31F24918A
:1002300020930301EFCF0E94DE02ECCF1154EEE3D6
:10024000F6E0E10FF31F24910E94C802E3CF0F9361
:100250001F932F930091020110910301209104013B
:1002600014130E943D0125130E94430103130E94B1
:1002700043012F911F910F9108950F930027009331
:1002800006010F9100C06F93609385006093840016
:10029000302F412F522F061303C00E94840132C019
:1002A0006395061303C00E94C5012CC06395061315
:1002B00003C00E94B80126C06395061303C00E94C4
:1002C000DF0120C06395061303C00E94EC011AC031
:1002D0006395061303C00E94D20114C063950613F0
:1002E00003C00E9491010EC06395061303C00E94D3
:1002F0009E0108C06395061303C00E94AB0102C0B3
:100300000E94F9016F9108953F93342F0E941302C8
:1003100030930001352F0E941302309301013F9169
:1003200008953F93342F0E943A0230930001352FF5
:100330000E943A02309301013F9108953F93342F78
:100340000E942D0230930001352F0E942D02309320
:1003500001013F9108953F93342F0E94060230938C
:100360000001352F0E940602309301013F9108954C
:100370003F93342F0E94200230930001352F0E94BA
:100380002002309301013F9108953F93342F0E9442
:10039000470230930001352F0E944702309301013C
:1003A0003F9108953F93342F0E94610230930001E2
:1003B000352F0E946102309301013F9108953F93D0
:1003C000342F0E946E0230930001352F0E946E027E
:1003D000309301013F9108953F93342F0E947B0297
:1003E00030930001352F0E947B02309301013F9131
:1003F00008953F93342F0E94540230930001352F0B
:100400000E945402309301013F910895EF93FF93AE
:100410001F931127EAEEF6E0E30FF11F34911F91CD
:10042000FF91EF910895EF93FF931F931127E2EB54
:10043000F6E0E30FF11F34911F91FF91EF910895C2
:10044000EF93FF931F931127EEECF6E0E30FF11FFC
:1004500034911F91FF91EF910895EF93FF931F93B4
:100460001127EAE7F6E0E30FF11F34911F91FF91A6
:10047000EF910895EF93FF931F931127E6E9F6E0BC
:10048000E30FF11F34911F91FF91EF910895EF93C6
:10049000FF931F931127E6E0F7E0E30FF11F34917C
:1004A0001F91FF91EF910895EF93FF931F931127F1
:1004B000E2E2F7E0E30FF11F34911F91FF91EF911A
:1004C0000895EF93FF931F931127EEE3F7E0E30FF7
:1004D000F11F34911F91FF91EF910895EF93FF93D6
:1004E0001F931127EAE5F7E0E30FF11F34911F9105
:1004F000FF91EF910895EF93FF931F931127E6E784
:10050000F7E0E30FF11F34911F91FF91EF910895F0
:10051000EF93FF930F931F932F933F934F9349E0D4
:10052000112700270000B19BFDCF0000B19A0830D1
:1005300069F0E8E6F6E0E00FF11F03952491E40F7F
:10054000F11F349127BD3093B300ECCF4F913F9111
:100550002F911F910F91FF91EF9108950F931F938A
:100560002F933F93EF93FF933327E8E5F6E0009155
:100570000801E00FF31F1591249110938900209337
:100580008800FF91EF913F912F911F910F91089556
:100590000F931F93AF93BF931127009109010F3F52
:1005A00041F0ABE0B1E0A00FB11F2C930395009395
:1005B0000901BF91AF911F910F9108951F932F9340
:1005C000BF93AF931127109303011093040110936D
:1005D0000A0120910901203049F0ABE0B1E02A95F1
:1005E000A20FB10F1C9320930901F3CFAF91BF91DC
:1005F0002F911F9108950F931F932F933F93AF93C4
:10060000BF93222700910901021771F010910A018E
:10061000ABE0B1E0A10FB21F3C9130930401139500
:10062000101749F010930A01BF91AF913F912F919C
:100630001F910F910895112710930A01F5CF080516
:10064000030A130B0C0D180E0F100706191A1114BC
:10065000091517041202160100FA01F403E807D085
:100660000FA01F40003E007D4F54648E965E4B3BB2
:1006700000272A32474B2F251D0000FDE1C8A89610
:100680007E7064544B3F38322A251F1C1915120FF7
:1006900000000000000000EED4BD9F8E776A5E4F20
:1006A000473B352F27231D1A1713110E000000009A
:1006B000000000EED4BDB29F8E7E776A5E594F4730
:1006C0003F3B352F2C27231F1D1A1716130000EE52
:1006D000D4C8B29F9686776A64594F4B433B3532F4
:1006E0002C2725211D1A1916130000EED4C8BD9F12
:1006F0008E776A645E4F473B35322F27231D1A19C8
:100700001713110E000000EED4C8B29F967E776AD0
:1007100064594F4B3F3B35322C27251F1D1A1916A4
:10072000130000FDEEE1D4C8BDB2A89F968E867E70
:1007300077706A645E59544F4B47433F3B0000EE6D
:10074000D4BDB29F968E7E776A5E594F4B473F3B32
:10075000352F2C2725231F1D1A0000EED4BDB29F74
:100760009686776A5E594F4B433B352F2C272521C0
:100770001D1A1716130000EEE1BDB29F9686777022
:100780005E594F4B433B382F2C2725211D1C171634
:02079000130054
:00000001FF
